:020000040800F2
:100000001004002045010008130800080F0800082C
:10001000110800088D010008E90800080000000030
:100020000000000000000000000000003708000889
:100030008F0100080000000035080008390800089A
:100040005F0100085F0100085F0100085F01000810
:100050005F0100085F0100085F0100085F01000800
:100060005F0100085F0100085F0100085F010008F0
:100070005F0100085F0100085F0100085F010008E0
:100080005F0100085F0100085F0100085F010008D0
:100090005F0100085F0100085F0100085F010008C0
:1000A0005F0100085F0100085F0100085F010008B0
:1000B0005F0100085F0100085F0100085F010008A0
:1000C0005F0100085F0100085F0100085F01000890
:1000D0005F0100085F0100085F0100085F01000880
:1000E0005F0100085F0100085F0100085F01000870
:1000F0005F0100085F0100085F0100085F01000860
:100100005F0100085F0100085F0100085F0100084F
:100110005F0100085F0100085F0100085F0100083F
:100120005F0100085F0100085F0100085F0100082F
:10013000DFF80CD000F018F8004800470909000863
:10014000100400200648804706480047FEE7FEE707
:10015000FEE7FEE7FEE7FEE7FEE7FEE7FEE7FEE777
:10016000A108000831010008064C074D06E0E068D0
:1001700040F0010394E8070098471034AC42F6D3EE
:10018000FFF7DAFF2409000844090008FEE770477A
:100190000148806870470000040000200248816820
:1001A000027811448160704704000020074810B5B0
:1001B000016841F010010160032000F089F800207F
:1001C00000F006F800F024F8002010BD00200240E6
:1001D00070B50D4D04464FF47A712878B1FBF0F0FC
:1001E0000A490968B1FBF0F000F0F9FA48B9102C9F
:1001F00007D200222146501E00F04AF800206C6011
:1002000070BD012070BD000004000020000000202F
:100210001D4808B5816941F001018161806900F0E4
:1002200001000090032000F053F8002211466FF007
:100230000B0000F02DF8002211466FF00A0000F0CC
:1002400027F8002211466FF0090000F021F8002283
:100250001146501F00F01CF800221146101F00F03C
:1002600017F800221146901E00F012F800221146E5
:10027000501E00F00DF80548416821F0E06141F0A2
:100280008061416008BD0000001002400000014094
:10029000F0B40E4B1B680C46C3F30223C3F10705F1
:1002A000042D00D90425191D072901D2002300E0DF
:1002B000DB1E012606FA05F1491E214099409E40A9
:1002C000761E16403143F0BC00F0A4BA0CED00E0FD
:1002D000064900F0070208684FF6FF03184040EA9D
:1002E0000220034A10430860704700000CED00E054
:1002F0000000FA052DE9F047DFF83C8105460E467F
:10030000D8F8000000F00700B0420CD2D8F8001076
:1003100021F007013143C8F80010D8F8000000F0C0
:100320000700B04263D12878444C800705D5606847
:10033000A96820F0F000084360602878C00745D025
:100340006868012816D02168022816D0890700297C
:100350004DDA616821F0030101436160FFF718FF86
:100360006968074641F2883001290FD00229814689
:1003700019D027E021688903E9E78901E7E700BF91
:10038000FFF706FFC11B494501D918E081466068A7
:10039000C0F381000128F3D118E000BFFFF7F8FE99
:1003A000C11B49450BD86068C0F381000228F5D114
:1003B0000CE000BFFFF7ECFEC11B494502D903204A
:1003C000BDE8F087606810F00C0FF3D1D8F800108A
:1003D000404601F00701B1420BD9016821F0070145
:1003E00031430160006800F00700B04201D00120F5
:1003F000E6E72878400705D56068E96820F4E06002
:10040000084360602878000706D56068296920F4F1
:10041000605040EAC100606000F01CF86168084A62
:10042000C1F30311515CC840064908600020FFF782
:10043000CFFE0020C4E70000002002400010024070
:100440001209000800000020014800687047000001
:100450000000002012A185B00FC98DE80F0014A084
:10046000144A006804905168134801F00C03042BEF
:1004700010D0082B0ED1C1F38343C9031DF803002C
:100480000AD5516804AAC1F34041515C0A4A50435D
:10049000B0FBF1F005B0704708494843FAE70000A7
:1004A00002030405060708090A0B0C0D0E0F1010B5
:1004B000010200000010024000127A0000093D0015
:1004C0002DE9F84F04460078B94DC00748D0686858
:1004D000C0F38100012807D06868C0F381000228BA
:1004E00009D16868C00306D52868800338D56068DC
:1004F00000286FD034E06068B0F5803F0BD010B1B9
:10050000B0F5A02F11D0286820F48030286028682A
:1005100020F4802002E0286840F480302860606881
:1005200088B1FFF735FE064609E0286840F48020D0
:100530002860F0E7FFF72CFE801B642875D8286838
:100540008003F7D50CE0FFF723FE064605E000BF69
:10055000FFF71EFE801B6428F0D828688003F7D4BC
:100560002078944E80074FF001094FF000083BD5EA
:10057000686810F00C0F07D06868C0F3810002288B
:1005800009D16868C00306D42868800714D520699B
:1005900001281FD110E02069B0B1C6F80090FFF724
:1005A000F7FD074605E000BFFFF7F2FDC01B02287C
:1005B000C4D828688007F7D52868616920F0F8005A
:1005C00040EAC10028600FE0C6F80080FFF7E0FDB8
:1005D000074606E0E9E000BFFFF7DAFDC01B02288E
:1005E00023D828688007F7D4207800072CD57248D4
:1005F000A169D9B1C0F80090FFF7CAFD074604E031
:10060000FFF7C6FDC01B02280FD8686A8007F7D520
:100610006A484FF4FA510068B0FBF1F0009000BF57
:100620000098411E0091FAD20EE080E0C0F80080F0
:10063000FFF7AEFD074604E0FFF7AAFDC01B022846
:1006400075D8686A8007F7D42078400760D5E869D4
:100650000027C00008D4E86940F08050E861E869EC
:10066000012700F08050009055480168C90513D457
:100670000168834641F480710160FFF789FD82467D
:1006800006E000BFFFF784FDA0EB0A0064284ED807
:10069000DBF80000C005F5D5E06801280AD008B1F4
:1006A000052813D0286A20F001002862286A20F06B
:1006B000040002E0286A40F001002862E06841F28C
:1006C000883B98B1FFF764FD82460BE0286A40F052
:1006D00004002862EEE700BFFFF75AFDA0EB0A0115
:1006E00059455AD8286A8007F6D50CE0FFF750FD27
:1006F000824605E0FFF74CFDA0EB0A0159454CD8B6
:10070000286A8007F6D41FB1E86920F08050E861BC
:10071000E06988B36968C1F38101022945D00228E4
:10072000C6F8608004D0FFF733FD044638E034E0BB
:10073000FFF72EFD074604E0FFF72AFDC01B022845
:100740002BD828688001F7D4206AB0F5803F05D106
:100750006868A16820F4003008436860D4E90801A3
:100760000843696821F4741108436860C6F8609012
:10077000FFF70EFD044606E015E000BFFFF708FD99
:10078000001B022809D828688001F7D50BE000BFBC
:10079000FFF7FEFC001B022802D90320BDE8F88FFA
:1007A00028688001F4D40020F8E70120F6E7000073
:1007B000001002400000424280044242000000203B
:1007C000007000404FF0E0210428086903D020F0B9
:1007D00004000861704740F00400FAE7704710B564
:1007E000401EB0F1807F01D3012010BD4FF0E02406
:1007F00060610F21601700F00DF80020A061072054
:100800002061002010BD10B5FFF7E8FF10BDFEE726
:10081000FEE770470907090E002806DA00F00F000E
:1008200000F1E02080F8141D704700F1E02080F80E
:10083000001470477047704710B5FFF7AFFCBDE874
:100840001040FFF7E0BF10B590B0022000900120EB
:10085000049010200024059007946846FFF730FEAE
:1008600000B1FEE70F20CDE90A040C940D9400219D
:100870000AA80E94FFF73EFD00B1FEE7FFF7E4FD86
:100880004FF47A71B0FBF1F0FFF7A9FF0420FFF7F6
:1008900099FF00221146501EFFF7FAFC10B010BD60
:1008A0000D48016841F00101016041680B4A1140A7
:1008B000416001680A4A11400160016821F4802109
:1008C0000160416821F4FE0141604FF41F01816025
:1008D0000449C00308607047001002400000FFF8A0
:1008E000FFFFF6FE08ED00E0FEE702E008C8121F79
:1008F00008C1002AFAD170477047002001E001C109
:10090000121F002AFBD17047FFF750FCFFF79BFF37
:10091000FEE70000000000000000010203040607DB
:100920000809000044090008000000201000000031
:10093000EA08000854090008100000200004000024
:10094000FA08000800A24A0401000000100000009C
:0409500000000000A3
:0400000508000131BD
:00000001FF
